{
  "_format": "hh-sol-artifact-1",
  "contractName": "TravelBookingV2",
  "sourceName": "contracts/TravelBookingV2.sol",
  "abi": [
    {
      "anonymous": false,
      "inputs": [
        {
          "indexed": true,
          "internalType": "uint256",
          "name": "packageId",
          "type": "uint256"
        },
        {
          "indexed": true,
          "internalType": "address",
          "name": "user",
          "type": "address"
        },
        {
          "indexed": false,
          "internalType": "uint256",
          "name": "amountPaid",
          "type": "uint256"
        }
      ],
      "name": "PackageBooked",
      "type": "event"
    },
    {
      "inputs": [],
      "name": "RECEIVER",
      "outputs": [
        {
          "internalType": "address",
          "name": "",
          "type": "address"
        }
      ],
      "stateMutability": "view",
      "type": "function"
    },
    {
      "inputs": [
        {
          "internalType": "uint256",
          "name": "packageId",
          "type": "uint256"
        }
      ],
      "name": "bookPackage",
      "outputs": [],
      "stateMutability": "payable",
      "type": "function"
    },
    {
      "inputs": [],
      "name": "bookingCount",
      "outputs": [
        {
          "internalType": "uint256",
          "name": "",
          "type": "uint256"
        }
      ],
      "stateMutability": "view",
      "type": "function"
    },
    {
      "inputs": [
        {
          "internalType": "uint256",
          "name": "",
          "type": "uint256"
        }
      ],
      "name": "bookings",
      "outputs": [
        {
          "internalType": "uint256",
          "name": "packageId",
          "type": "uint256"
        },
        {
          "internalType": "address",
          "name": "user",
          "type": "address"
        },
        {
          "internalType": "uint256",
          "name": "amountPaid",
          "type": "uint256"
        },
        {
          "internalType": "bool",
          "name": "isBooked",
          "type": "bool"
        }
      ],
      "stateMutability": "view",
      "type": "function"
    },
    {
      "inputs": [
        {
          "internalType": "uint256",
          "name": "bookingId",
          "type": "uint256"
        }
      ],
      "name": "getBookingStatus",
      "outputs": [
        {
          "internalType": "bool",
          "name": "",
          "type": "bool"
        }
      ],
      "stateMutability": "view",
      "type": "function"
    }
  ],
  "bytecode": "0x6080604052348015600f57600080fd5b506107648061001f6000396000f3fe60806040526004361061004a5760003560e01c80631dab301e1461004f5780633c15b31c1461008f5780636d759172146100cc5780639e47f9b3146100f7578063ad7430cc14610113575b600080fd5b34801561005b57600080fd5b506100766004803603810190610071919061045a565b61013e565b60405161008694939291906104f2565b60405180910390f35b34801561009b57600080fd5b506100b660048036038101906100b1919061045a565b61019b565b6040516100c39190610537565b60405180910390f35b3480156100d857600080fd5b506100e16101c7565b6040516100ee9190610552565b60405180910390f35b610111600480360381019061010c919061045a565b6101cd565b005b34801561011f57600080fd5b50610128610407565b604051610135919061056d565b60405180910390f35b60006020528060005260406000206000915090508060000154908060010160009054906101000a900473ffffffffffffffffffffffffffffffffffffffff16908060020154908060030160009054906101000a900460ff16905084565b600080600083815260200190815260200160002060030160009054906101000a900460ff169050919050565b60015481565b60003411610210576040517f08c379a0000000000000000000000000000000000000000000000000000000008152600401610207906105e5565b60405180910390fd5b6001600081548092919061022390610634565b919050555060405180608001604052808281526020013373ffffffffffffffffffffffffffffffffffffffff1681526020013481526020016001151581525060008060015481526020019081526020016000206000820151816000015560208201518160010160006101000a81548173ffffffffffffffffffffffffffffffffffffffff021916908373ffffffffffffffffffffffffffffffffffffffff1602179055506040820151816002015560608201518160030160006101000a81548160ff021916908315150217905550905050600073cd14338ab62d86d17756807e536a607675d1d24673ffffffffffffffffffffffffffffffffffffffff163460405161032e906106ad565b60006040518083038185875af1925050503d806000811461036b576040519150601f19603f3d011682016040523d82523d6000602084013e610370565b606091505b50509050806103b4576040517f08c379a00000000000000000000000000000000000000000000000000000000081526004016103ab9061070e565b60405180910390fd5b3373ffffffffffffffffffffffffffffffffffffffff16827ffc116c8da053cde5ed05fb7bf40302c5a5d50a6dadb81ecac0f2689b1408226f346040516103fb9190610552565b60405180910390a35050565b73cd14338ab62d86d17756807e536a607675d1d24681565b600080fd5b6000819050919050565b61043781610424565b811461044257600080fd5b50565b6000813590506104548161042e565b92915050565b6000602082840312156104705761046f61041f565b5b600061047e84828501610445565b91505092915050565b61049081610424565b82525050565b600073ffffffffffffffffffffffffffffffffffffffff82169050919050565b60006104c182610496565b9050919050565b6104d1816104b6565b82525050565b60008115159050919050565b6104ec816104d7565b82525050565b60006080820190506105076000830187610487565b61051460208301866104c8565b6105216040830185610487565b61052e60608301846104e3565b95945050505050565b600060208201905061054c60008301846104e3565b92915050565b60006020820190506105676000830184610487565b92915050565b600060208201905061058260008301846104c8565b92915050565b600082825260208201905092915050565b7f416d6f756e74206d7573742062652067726561746572207468616e2030000000600082015250565b60006105cf601d83610588565b91506105da82610599565b602082019050919050565b600060208201905081810360008301526105fe816105c2565b9050919050565b7f4e487b7100000000000000000000000000000000000000000000000000000000600052601160045260246000fd5b600061063f82610424565b91507fffffffffffffffffffffffffffffffffffffffffffffffffffffffffffffffff820361067157610670610605565b5b600182019050919050565b600081905092915050565b50565b600061069760008361067c565b91506106a282610687565b600082019050919050565b60006106b88261068a565b9150819050919050565b7f5472616e7366657220746f207265636569766572206661696c65640000000000600082015250565b60006106f8601b83610588565b9150610703826106c2565b602082019050919050565b60006020820190508181036000830152610727816106eb565b905091905056fea26469706673582212202be19d8d38e2a79e3924cda518048532eb8e0547c01cc53329d46877f3ea470564736f6c634300081c0033",
  "linkReferences": {},
  "deployedLinkReferences": {}
}