{
  "_format": "hh-sol-artifact-1",
  "contractName": "TravelBooking",
  "sourceName": "contracts/TravelBooking.sol",
  "abi": [
    {
      "anonymous": false,
      "inputs": [
        {
          "indexed": true,
          "internalType": "uint256",
          "name": "packageId",
          "type": "uint256"
        },
        {
          "indexed": true,
          "internalType": "address",
          "name": "user",
          "type": "address"
        },
        {
          "indexed": false,
          "internalType": "uint256",
          "name": "amountPaid",
          "type": "uint256"
        }
      ],
      "name": "PackageBooked",
      "type": "event"
    },
    {
      "inputs": [
        {
          "internalType": "uint256",
          "name": "packageId",
          "type": "uint256"
        }
      ],
      "name": "bookPackage",
      "outputs": [],
      "stateMutability": "payable",
      "type": "function"
    },
    {
      "inputs": [],
      "name": "bookingCount",
      "outputs": [
        {
          "internalType": "uint256",
          "name": "",
          "type": "uint256"
        }
      ],
      "stateMutability": "view",
      "type": "function"
    },
    {
      "inputs": [
        {
          "internalType": "uint256",
          "name": "",
          "type": "uint256"
        }
      ],
      "name": "bookings",
      "outputs": [
        {
          "internalType": "uint256",
          "name": "packageId",
          "type": "uint256"
        },
        {
          "internalType": "address",
          "name": "user",
          "type": "address"
        },
        {
          "internalType": "uint256",
          "name": "amountPaid",
          "type": "uint256"
        },
        {
          "internalType": "bool",
          "name": "isBooked",
          "type": "bool"
        }
      ],
      "stateMutability": "view",
      "type": "function"
    },
    {
      "inputs": [
        {
          "internalType": "uint256",
          "name": "bookingId",
          "type": "uint256"
        }
      ],
      "name": "getBookingStatus",
      "outputs": [
        {
          "internalType": "bool",
          "name": "",
          "type": "bool"
        }
      ],
      "stateMutability": "view",
      "type": "function"
    }
  ],
  "bytecode": "0x6080604052348015600f57600080fd5b506105888061001f6000396000f3fe60806040526004361061003f5760003560e01c80631dab301e146100445780633c15b31c146100845780636d759172146100c15780639e47f9b3146100ec575b600080fd5b34801561005057600080fd5b5061006b6004803603810190610066919061034b565b610108565b60405161007b94939291906103e3565b60405180910390f35b34801561009057600080fd5b506100ab60048036038101906100a6919061034b565b610165565b6040516100b89190610428565b60405180910390f35b3480156100cd57600080fd5b506100d6610191565b6040516100e39190610443565b60405180910390f35b6101066004803603810190610101919061034b565b610197565b005b60006020528060005260406000206000915090508060000154908060010160009054906101000a900473ffffffffffffffffffffffffffffffffffffffff16908060020154908060030160009054906101000a900460ff16905084565b600080600083815260200190815260200160002060030160009054906101000a900460ff169050919050565b60015481565b600034116101da576040517f08c379a00000000000000000000000000000000000000000000000000000000081526004016101d1906104bb565b60405180910390fd5b600160008154809291906101ed9061050a565b919050555060405180608001604052808281526020013373ffffffffffffffffffffffffffffffffffffffff1681526020013481526020016001151581525060008060015481526020019081526020016000206000820151816000015560208201518160010160006101000a81548173ffffffffffffffffffffffffffffffffffffffff021916908373ffffffffffffffffffffffffffffffffffffffff1602179055506040820151816002015560608201518160030160006101000a81548160ff0219169083151502179055509050503373ffffffffffffffffffffffffffffffffffffffff16817ffc116c8da053cde5ed05fb7bf40302c5a5d50a6dadb81ecac0f2689b1408226f346040516103059190610443565b60405180910390a350565b600080fd5b6000819050919050565b61032881610315565b811461033357600080fd5b50565b6000813590506103458161031f565b92915050565b60006020828403121561036157610360610310565b5b600061036f84828501610336565b91505092915050565b61038181610315565b82525050565b600073ffffffffffffffffffffffffffffffffffffffff82169050919050565b60006103b282610387565b9050919050565b6103c2816103a7565b82525050565b60008115159050919050565b6103dd816103c8565b82525050565b60006080820190506103f86000830187610378565b61040560208301866103b9565b6104126040830185610378565b61041f60608301846103d4565b95945050505050565b600060208201905061043d60008301846103d4565b92915050565b60006020820190506104586000830184610378565b92915050565b600082825260208201905092915050565b7f416d6f756e74206d7573742062652067726561746572207468616e2030000000600082015250565b60006104a5601d8361045e565b91506104b08261046f565b602082019050919050565b600060208201905081810360008301526104d481610498565b9050919050565b7f4e487b7100000000000000000000000000000000000000000000000000000000600052601160045260246000fd5b600061051582610315565b91507fffffffffffffffffffffffffffffffffffffffffffffffffffffffffffffffff8203610547576105466104db565b5b60018201905091905056fea2646970667358221220c3d27bbf3ce5aef2ba4d52cf5bb35b03a6cf26a306ea97c391bc526898555c5c64736f6c634300081c0033",
  "linkReferences": {},
  "deployedLinkReferences": {}
}